{
  "_format": "hh-sol-artifact-1",
  "contractName": "BoilerRegistry",
  "sourceName": "contracts/BoilerRegistry.sol",
  "abi": [
    {
      "inputs": [],
      "stateMutability": "nonpayable",
      "type": "constructor"
    },
    {
      "anonymous": false,
      "inputs": [
        {
          "indexed": true,
          "internalType": "string",
          "name": "boilerId",
          "type": "string"
        },
        {
          "indexed": false,
          "internalType": "string",
          "name": "owner",
          "type": "string"
        },
        {
          "indexed": false,
          "internalType": "string",
          "name": "location",
          "type": "string"
        }
      ],
      "name": "BoilerRegistered",
      "type": "event"
    },
    {
      "anonymous": false,
      "inputs": [
        {
          "indexed": true,
          "internalType": "string",
          "name": "boilerId",
          "type": "string"
        },
        {
          "indexed": false,
          "internalType": "string",
          "name": "interventionType",
          "type": "string"
        },
        {
          "indexed": false,
          "internalType": "string",
          "name": "technician",
          "type": "string"
        }
      ],
      "name": "MaintenanceAdded",
      "type": "event"
    },
    {
      "inputs": [
        {
          "internalType": "string",
          "name": "_boilerId",
          "type": "string"
        },
        {
          "internalType": "string",
          "name": "_interventionType",
          "type": "string"
        },
        {
          "internalType": "string",
          "name": "_description",
          "type": "string"
        },
        {
          "internalType": "string",
          "name": "_technician",
          "type": "string"
        },
        {
          "internalType": "string",
          "name": "_partChanged",
          "type": "string"
        }
      ],
      "name": "addMaintenance",
      "outputs": [],
      "stateMutability": "nonpayable",
      "type": "function"
    },
    {
      "inputs": [
        {
          "internalType": "string",
          "name": "",
          "type": "string"
        }
      ],
      "name": "boilers",
      "outputs": [
        {
          "internalType": "string",
          "name": "boilerId",
          "type": "string"
        },
        {
          "internalType": "string",
          "name": "qrCode",
          "type": "string"
        },
        {
          "internalType": "string",
          "name": "owner",
          "type": "string"
        },
        {
          "internalType": "string",
          "name": "location",
          "type": "string"
        },
        {
          "internalType": "bool",
          "name": "exists",
          "type": "bool"
        }
      ],
      "stateMutability": "view",
      "type": "function"
    },
    {
      "inputs": [
        {
          "internalType": "string",
          "name": "_boilerId",
          "type": "string"
        }
      ],
      "name": "getMaintenances",
      "outputs": [
        {
          "components": [
            {
              "internalType": "uint256",
              "name": "date",
              "type": "uint256"
            },
            {
              "internalType": "string",
              "name": "interventionType",
              "type": "string"
            },
            {
              "internalType": "string",
              "name": "description",
              "type": "string"
            },
            {
              "internalType": "string",
              "name": "technician",
              "type": "string"
            },
            {
              "internalType": "string",
              "name": "partChanged",
              "type": "string"
            }
          ],
          "internalType": "struct BoilerRegistry.Maintenance[]",
          "name": "",
          "type": "tuple[]"
        }
      ],
      "stateMutability": "view",
      "type": "function"
    },
    {
      "inputs": [
        {
          "internalType": "string",
          "name": "",
          "type": "string"
        },
        {
          "internalType": "uint256",
          "name": "",
          "type": "uint256"
        }
      ],
      "name": "maintenances",
      "outputs": [
        {
          "internalType": "uint256",
          "name": "date",
          "type": "uint256"
        },
        {
          "internalType": "string",
          "name": "interventionType",
          "type": "string"
        },
        {
          "internalType": "string",
          "name": "description",
          "type": "string"
        },
        {
          "internalType": "string",
          "name": "technician",
          "type": "string"
        },
        {
          "internalType": "string",
          "name": "partChanged",
          "type": "string"
        }
      ],
      "stateMutability": "view",
      "type": "function"
    },
    {
      "inputs": [],
      "name": "owner",
      "outputs": [
        {
          "internalType": "address",
          "name": "",
          "type": "address"
        }
      ],
      "stateMutability": "view",
      "type": "function"
    },
    {
      "inputs": [
        {
          "internalType": "string",
          "name": "_boilerId",
          "type": "string"
        },
        {
          "internalType": "string",
          "name": "_qrCode",
          "type": "string"
        },
        {
          "internalType": "string",
          "name": "_owner",
          "type": "string"
        },
        {
          "internalType": "string",
          "name": "_location",
          "type": "string"
        }
      ],
      "name": "registerBoiler",
      "outputs": [],
      "stateMutability": "nonpayable",
      "type": "function"
    }
  ],
  "bytecode": "0x6080604052348015600f57600080fd5b5033600260006101000a81548173ffffffffffffffffffffffffffffffffffffffff021916908373ffffffffffffffffffffffffffffffffffffffff1602179055506118bd806100606000396000f3fe608060405234801561001057600080fd5b50600436106100615760003560e01c8062e7c1c514610066578063088e72f914610096578063816fdc1d146100ca5780638da5cb5b146100fe578063bda735241461011c578063e560858914610138575b600080fd5b610080600480360381019061007b9190610de3565b610154565b60405161008d9190611011565b60405180910390f35b6100b060048036038101906100ab9190610de3565b610423565b6040516100c1959493929190611098565b60405180910390f35b6100e460048036038101906100df9190611133565b61069c565b6040516100f595949392919061119e565b60405180910390f35b610106610925565b604051610113919061124e565b60405180910390f35b61013660048036038101906101319190611269565b61094b565b005b610152600480360381019061014d9190611370565b610ae1565b005b60606001826040516101669190611483565b9081526020016040518091039020805480602002602001604051908101604052809291908181526020016000905b8282101561041857838290600052602060002090600502016040518060a0016040529081600082015481526020016001820180546101d1906114c9565b80601f01602080910402602001604051908101604052809291908181526020018280546101fd906114c9565b801561024a5780601f1061021f5761010080835404028352916020019161024a565b820191906000526020600020905b81548152906001019060200180831161022d57829003601f168201915b50505050508152602001600282018054610263906114c9565b80601f016020809104026020016040519081016040528092919081815260200182805461028f906114c9565b80156102dc5780601f106102b1576101008083540402835291602001916102dc565b820191906000526020600020905b8154815290600101906020018083116102bf57829003601f168201915b505050505081526020016003820180546102f5906114c9565b80601f0160208091040260200160405190810160405280929190818152602001828054610321906114c9565b801561036e5780601f106103435761010080835404028352916020019161036e565b820191906000526020600020905b81548152906001019060200180831161035157829003601f168201915b50505050508152602001600482018054610387906114c9565b80601f01602080910402602001604051908101604052809291908181526020018280546103b3906114c9565b80156104005780601f106103d557610100808354040283529160200191610400565b820191906000526020600020905b8154815290600101906020018083116103e357829003601f168201915b50505050508152505081526020019060010190610194565b505050509050919050565b60008180516020810182018051848252602083016020850120818352809550505050505060009150905080600001805461045c906114c9565b80601f0160208091040260200160405190810160405280929190818152602001828054610488906114c9565b80156104d55780601f106104aa576101008083540402835291602001916104d5565b820191906000526020600020905b8154815290600101906020018083116104b857829003601f168201915b5050505050908060010180546104ea906114c9565b80601f0160208091040260200160405190810160405280929190818152602001828054610516906114c9565b80156105635780601f1061053857610100808354040283529160200191610563565b820191906000526020600020905b81548152906001019060200180831161054657829003601f168201915b505050505090806002018054610578906114c9565b80601f01602080910402602001604051908101604052809291908181526020018280546105a4906114c9565b80156105f15780601f106105c6576101008083540402835291602001916105f1565b820191906000526020600020905b8154815290600101906020018083116105d457829003601f168201915b505050505090806003018054610606906114c9565b80601f0160208091040260200160405190810160405280929190818152602001828054610632906114c9565b801561067f5780601f106106545761010080835404028352916020019161067f565b820191906000526020600020905b81548152906001019060200180831161066257829003601f168201915b5050505050908060040160009054906101000a900460ff16905085565b60018280516020810182018051848252602083016020850120818352809550505050505081815481106106ce57600080fd5b9060005260206000209060050201600091509150508060000154908060010180546106f8906114c9565b80601f0160208091040260200160405190810160405280929190818152602001828054610724906114c9565b80156107715780601f1061074657610100808354040283529160200191610771565b820191906000526020600020905b81548152906001019060200180831161075457829003601f168201915b505050505090806002018054610786906114c9565b80601f01602080910402602001604051908101604052809291908181526020018280546107b2906114c9565b80156107ff5780601f106107d4576101008083540402835291602001916107ff565b820191906000526020600020905b8154815290600101906020018083116107e257829003601f168201915b505050505090806003018054610814906114c9565b80601f0160208091040260200160405190810160405280929190818152602001828054610840906114c9565b801561088d5780601f106108625761010080835404028352916020019161088d565b820191906000526020600020905b81548152906001019060200180831161087057829003601f168201915b5050505050908060040180546108a2906114c9565b80601f01602080910402602001604051908101604052809291908181526020018280546108ce906114c9565b801561091b5780601f106108f05761010080835404028352916020019161091b565b820191906000526020600020905b8154815290600101906020018083116108fe57829003601f168201915b5050505050905085565b600260009054906101000a900473ffffffffffffffffffffffffffffffffffffffff1681565b60008560405161095b9190611483565b908152602001604051809103902060040160009054906101000a900460ff166109b9576040517f08c379a00000000000000000000000000000000000000000000000000000000081526004016109b090611546565b60405180910390fd5b6001856040516109c99190611483565b90815260200160405180910390206040518060a00160405280428152602001868152602001858152602001848152602001838152509080600181540180825580915050600190039060005260206000209060050201600090919091909150600082015181600001556020820151816001019081610a469190611712565b506040820151816002019081610a5c9190611712565b506060820151816003019081610a729190611712565b506080820151816004019081610a889190611712565b50505084604051610a999190611483565b60405180910390207f577a0a01c4d7c6a9c41df55c61e09c9f8e15eff421cd81b7bb8eddd0a4b969218584604051610ad29291906117e4565b60405180910390a25050505050565b600260009054906101000a900473ffffffffffffffffffffffffffffffffffffffff1673ffffffffffffffffffffffffffffffffffffffff163373ffffffffffffffffffffffffffffffffffffffff1614610b71576040517f08c379a0000000000000000000000000000000000000000000000000000000008152600401610b6890611867565b60405180910390fd5b6040518060a0016040528085815260200184815260200183815260200182815260200160011515815250600085604051610bab9190611483565b90815260200160405180910390206000820151816000019081610bce9190611712565b506020820151816001019081610be49190611712565b506040820151816002019081610bfa9190611712565b506060820151816003019081610c109190611712565b5060808201518160040160006101000a81548160ff02191690831515021790555090505083604051610c429190611483565b60405180910390207f26377fdebcfdf13b3c7d799812d835ea089310089d2890730c7eeb0920e45e948383604051610c7b9291906117e4565b60405180910390a250505050565b6000604051905090565b600080fd5b600080fd5b600080fd5b600080fd5b6000601f19601f8301169050919050565b7f4e487b7100000000000000000000000000000000000000000000000000000000600052604160045260246000fd5b610cf082610ca7565b810181811067ffffffffffffffff82111715610d0f57610d0e610cb8565b5b80604052505050565b6000610d22610c89565b9050610d2e8282610ce7565b919050565b600067ffffffffffffffff821115610d4e57610d4d610cb8565b5b610d5782610ca7565b9050602081019050919050565b82818337600083830152505050565b6000610d86610d8184610d33565b610d18565b905082815260208101848484011115610da257610da1610ca2565b5b610dad848285610d64565b509392505050565b600082601f830112610dca57610dc9610c9d565b5b8135610dda848260208601610d73565b91505092915050565b600060208284031215610df957610df8610c93565b5b600082013567ffffffffffffffff811115610e1757610e16610c98565b5b610e2384828501610db5565b91505092915050565b600081519050919050565b600082825260208201905092915050565b6000819050602082019050919050565b6000819050919050565b610e6b81610e58565b82525050565b600081519050919050565b600082825260208201905092915050565b60005b83811015610eab578082015181840152602081019050610e90565b60008484015250505050565b6000610ec282610e71565b610ecc8185610e7c565b9350610edc818560208601610e8d565b610ee581610ca7565b840191505092915050565b600060a083016000830151610f086000860182610e62565b5060208301518482036020860152610f208282610eb7565b91505060408301518482036040860152610f3a8282610eb7565b91505060608301518482036060860152610f548282610eb7565b91505060808301518482036080860152610f6e8282610eb7565b9150508091505092915050565b6000610f878383610ef0565b905092915050565b6000602082019050919050565b6000610fa782610e2c565b610fb18185610e37565b935083602082028501610fc385610e48565b8060005b85811015610fff5784840389528151610fe08582610f7b565b9450610feb83610f8f565b925060208a01995050600181019050610fc7565b50829750879550505050505092915050565b6000602082019050818103600083015261102b8184610f9c565b905092915050565b600082825260208201905092915050565b600061104f82610e71565b6110598185611033565b9350611069818560208601610e8d565b61107281610ca7565b840191505092915050565b60008115159050919050565b6110928161107d565b82525050565b600060a08201905081810360008301526110b28188611044565b905081810360208301526110c68187611044565b905081810360408301526110da8186611044565b905081810360608301526110ee8185611044565b90506110fd6080830184611089565b9695505050505050565b61111081610e58565b811461111b57600080fd5b50565b60008135905061112d81611107565b92915050565b6000806040838503121561114a57611149610c93565b5b600083013567ffffffffffffffff81111561116857611167610c98565b5b61117485828601610db5565b92505060206111858582860161111e565b9150509250929050565b61119881610e58565b82525050565b600060a0820190506111b3600083018861118f565b81810360208301526111c58187611044565b905081810360408301526111d98186611044565b905081810360608301526111ed8185611044565b905081810360808301526112018184611044565b90509695505050505050565b600073ffffffffffffffffffffffffffffffffffffffff82169050919050565b60006112388261120d565b9050919050565b6112488161122d565b82525050565b6000602082019050611263600083018461123f565b92915050565b600080600080600060a0868803121561128557611284610c93565b5b600086013567ffffffffffffffff8111156112a3576112a2610c98565b5b6112af88828901610db5565b955050602086013567ffffffffffffffff8111156112d0576112cf610c98565b5b6112dc88828901610db5565b945050604086013567ffffffffffffffff8111156112fd576112fc610c98565b5b61130988828901610db5565b935050606086013567ffffffffffffffff81111561132a57611329610c98565b5b61133688828901610db5565b925050608086013567ffffffffffffffff81111561135757611356610c98565b5b61136388828901610db5565b9150509295509295909350565b6000806000806080858703121561138a57611389610c93565b5b600085013567ffffffffffffffff8111156113a8576113a7610c98565b5b6113b487828801610db5565b945050602085013567ffffffffffffffff8111156113d5576113d4610c98565b5b6113e187828801610db5565b935050604085013567ffffffffffffffff81111561140257611401610c98565b5b61140e87828801610db5565b925050606085013567ffffffffffffffff81111561142f5761142e610c98565b5b61143b87828801610db5565b91505092959194509250565b600081905092915050565b600061145d82610e71565b6114678185611447565b9350611477818560208601610e8d565b80840191505092915050565b600061148f8284611452565b915081905092915050565b7f4e487b7100000000000000000000000000000000000000000000000000000000600052602260045260246000fd5b600060028204905060018216806114e157607f821691505b6020821081036114f4576114f361149a565b5b50919050565b7f436574746520636861756469657265206e276578697374652070617300000000600082015250565b6000611530601c83611033565b915061153b826114fa565b602082019050919050565b6000602082019050818103600083015261155f81611523565b9050919050565b60008190508160005260206000209050919050565b60006020601f8301049050919050565b600082821b905092915050565b6000600883026115c87fffffffffffffffffffffffffffffffffffffffffffffffffffffffffffffffff8261158b565b6115d2868361158b565b95508019841693508086168417925050509392505050565b6000819050919050565b600061160f61160a61160584610e58565b6115ea565b610e58565b9050919050565b6000819050919050565b611629836115f4565b61163d61163582611616565b848454611598565b825550505050565b600090565b611652611645565b61165d818484611620565b505050565b5b818110156116815761167660008261164a565b600181019050611663565b5050565b601f8211156116c65761169781611566565b6116a08461157b565b810160208510156116af578190505b6116c36116bb8561157b565b830182611662565b50505b505050565b600082821c905092915050565b60006116e9600019846008026116cb565b1980831691505092915050565b600061170283836116d8565b9150826002028217905092915050565b61171b82610e71565b67ffffffffffffffff81111561173457611733610cb8565b5b61173e82546114c9565b611749828285611685565b600060209050601f83116001811461177c576000841561176a578287015190505b61177485826116f6565b8655506117dc565b601f19841661178a86611566565b60005b828110156117b25784890151825560018201915060208501945060208101905061178d565b868310156117cf57848901516117cb601f8916826116d8565b8355505b6001600288020188555050505b505050505050565b600060408201905081810360008301526117fe8185611044565b905081810360208301526118128184611044565b90509392505050565b7f526573657276652061206c2761646d696e697374726174657572000000000000600082015250565b6000611851601a83611033565b915061185c8261181b565b602082019050919050565b6000602082019050818103600083015261188081611844565b905091905056fea26469706673582212205e9e8da5f2845e1c2accd2e7aee636eaf34ef5e93ade23be2ea1c3393a099b9064736f6c634300081c0033",
  "linkReferences": {},
  "deployedLinkReferences": {}
}