{
  "_format": "hh-sol-artifact-1",
  "contractName": "BoilerRegistry",
  "sourceName": "contracts/BoilerRegistry.sol",
  "abi": [
    {
      "inputs": [],
      "stateMutability": "nonpayable",
      "type": "constructor"
    },
    {
      "anonymous": false,
      "inputs": [
        {
          "indexed": true,
          "internalType": "string",
          "name": "boilerId",
          "type": "string"
        },
        {
          "indexed": false,
          "internalType": "string",
          "name": "owner",
          "type": "string"
        },
        {
          "indexed": false,
          "internalType": "string",
          "name": "location",
          "type": "string"
        }
      ],
      "name": "BoilerRegistered",
      "type": "event"
    },
    {
      "anonymous": false,
      "inputs": [
        {
          "indexed": true,
          "internalType": "string",
          "name": "boilerId",
          "type": "string"
        },
        {
          "indexed": false,
          "internalType": "string",
          "name": "interventionType",
          "type": "string"
        },
        {
          "indexed": false,
          "internalType": "string",
          "name": "technician",
          "type": "string"
        }
      ],
      "name": "MaintenanceAdded",
      "type": "event"
    },
    {
      "inputs": [
        {
          "internalType": "string",
          "name": "_boilerId",
          "type": "string"
        },
        {
          "internalType": "string",
          "name": "_interventionType",
          "type": "string"
        },
        {
          "internalType": "string",
          "name": "_description",
          "type": "string"
        },
        {
          "internalType": "string",
          "name": "_technician",
          "type": "string"
        },
        {
          "internalType": "string",
          "name": "_partChanged",
          "type": "string"
        }
      ],
      "name": "addMaintenance",
      "outputs": [],
      "stateMutability": "nonpayable",
      "type": "function"
    },
    {
      "inputs": [
        {
          "internalType": "string",
          "name": "",
          "type": "string"
        }
      ],
      "name": "boilers",
      "outputs": [
        {
          "internalType": "string",
          "name": "boilerId",
          "type": "string"
        },
        {
          "internalType": "string",
          "name": "qrCode",
          "type": "string"
        },
        {
          "internalType": "string",
          "name": "owner",
          "type": "string"
        },
        {
          "internalType": "string",
          "name": "location",
          "type": "string"
        },
        {
          "internalType": "bool",
          "name": "exists",
          "type": "bool"
        }
      ],
      "stateMutability": "view",
      "type": "function"
    },
    {
      "inputs": [
        {
          "internalType": "string",
          "name": "",
          "type": "string"
        },
        {
          "internalType": "uint256",
          "name": "",
          "type": "uint256"
        }
      ],
      "name": "maintenances",
      "outputs": [
        {
          "internalType": "uint256",
          "name": "date",
          "type": "uint256"
        },
        {
          "internalType": "string",
          "name": "interventionType",
          "type": "string"
        },
        {
          "internalType": "string",
          "name": "description",
          "type": "string"
        },
        {
          "internalType": "string",
          "name": "technician",
          "type": "string"
        },
        {
          "internalType": "string",
          "name": "partChanged",
          "type": "string"
        }
      ],
      "stateMutability": "view",
      "type": "function"
    },
    {
      "inputs": [],
      "name": "owner",
      "outputs": [
        {
          "internalType": "address",
          "name": "",
          "type": "address"
        }
      ],
      "stateMutability": "view",
      "type": "function"
    },
    {
      "inputs": [
        {
          "internalType": "string",
          "name": "_boilerId",
          "type": "string"
        },
        {
          "internalType": "string",
          "name": "_qrCode",
          "type": "string"
        },
        {
          "internalType": "string",
          "name": "_owner",
          "type": "string"
        },
        {
          "internalType": "string",
          "name": "_location",
          "type": "string"
        }
      ],
      "name": "registerBoiler",
      "outputs": [],
      "stateMutability": "nonpayable",
      "type": "function"
    }
  ],
  "bytecode": "0x6080604052348015600f57600080fd5b5033600260006101000a81548173ffffffffffffffffffffffffffffffffffffffff021916908373ffffffffffffffffffffffffffffffffffffffff1602179055506113ec806100606000396000f3fe608060405234801561001057600080fd5b50600436106100575760003560e01c8063088e72f91461005c578063816fdc1d146100905780638da5cb5b146100c4578063bda73524146100e2578063e5608589146100fe575b600080fd5b61007660048036038101906100719190610ada565b61011a565b604051610087959493929190610bbd565b60405180910390f35b6100aa60048036038101906100a59190610c62565b610393565b6040516100bb959493929190610ccd565b60405180910390f35b6100cc61061c565b6040516100d99190610d7d565b60405180910390f35b6100fc60048036038101906100f79190610d98565b610642565b005b61011860048036038101906101139190610e9f565b6107d8565b005b60008180516020810182018051848252602083016020850120818352809550505050505060009150905080600001805461015390610fa5565b80601f016020809104026020016040519081016040528092919081815260200182805461017f90610fa5565b80156101cc5780601f106101a1576101008083540402835291602001916101cc565b820191906000526020600020905b8154815290600101906020018083116101af57829003601f168201915b5050505050908060010180546101e190610fa5565b80601f016020809104026020016040519081016040528092919081815260200182805461020d90610fa5565b801561025a5780601f1061022f5761010080835404028352916020019161025a565b820191906000526020600020905b81548152906001019060200180831161023d57829003601f168201915b50505050509080600201805461026f90610fa5565b80601f016020809104026020016040519081016040528092919081815260200182805461029b90610fa5565b80156102e85780601f106102bd576101008083540402835291602001916102e8565b820191906000526020600020905b8154815290600101906020018083116102cb57829003601f168201915b5050505050908060030180546102fd90610fa5565b80601f016020809104026020016040519081016040528092919081815260200182805461032990610fa5565b80156103765780601f1061034b57610100808354040283529160200191610376565b820191906000526020600020905b81548152906001019060200180831161035957829003601f168201915b5050505050908060040160009054906101000a900460ff16905085565b60018280516020810182018051848252602083016020850120818352809550505050505081815481106103c557600080fd5b9060005260206000209060050201600091509150508060000154908060010180546103ef90610fa5565b80601f016020809104026020016040519081016040528092919081815260200182805461041b90610fa5565b80156104685780601f1061043d57610100808354040283529160200191610468565b820191906000526020600020905b81548152906001019060200180831161044b57829003601f168201915b50505050509080600201805461047d90610fa5565b80601f01602080910402602001604051908101604052809291908181526020018280546104a990610fa5565b80156104f65780601f106104cb576101008083540402835291602001916104f6565b820191906000526020600020905b8154815290600101906020018083116104d957829003601f168201915b50505050509080600301805461050b90610fa5565b80601f016020809104026020016040519081016040528092919081815260200182805461053790610fa5565b80156105845780601f1061055957610100808354040283529160200191610584565b820191906000526020600020905b81548152906001019060200180831161056757829003601f168201915b50505050509080600401805461059990610fa5565b80601f01602080910402602001604051908101604052809291908181526020018280546105c590610fa5565b80156106125780601f106105e757610100808354040283529160200191610612565b820191906000526020600020905b8154815290600101906020018083116105f557829003601f168201915b5050505050905085565b600260009054906101000a900473ffffffffffffffffffffffffffffffffffffffff1681565b6000856040516106529190611012565b908152602001604051809103902060040160009054906101000a900460ff166106b0576040517f08c379a00000000000000000000000000000000000000000000000000000000081526004016106a790611075565b60405180910390fd5b6001856040516106c09190611012565b90815260200160405180910390206040518060a0016040528042815260200186815260200185815260200184815260200183815250908060018154018082558091505060019003906000526020600020906005020160009091909190915060008201518160000155602082015181600101908161073d9190611241565b5060408201518160020190816107539190611241565b5060608201518160030190816107699190611241565b50608082015181600401908161077f9190611241565b505050846040516107909190611012565b60405180910390207f577a0a01c4d7c6a9c41df55c61e09c9f8e15eff421cd81b7bb8eddd0a4b9692185846040516107c9929190611313565b60405180910390a25050505050565b600260009054906101000a900473ffffffffffffffffffffffffffffffffffffffff1673ffffffffffffffffffffffffffffffffffffffff163373ffffffffffffffffffffffffffffffffffffffff1614610868576040517f08c379a000000000000000000000000000000000000000000000000000000000815260040161085f90611396565b60405180910390fd5b6040518060a00160405280858152602001848152602001838152602001828152602001600115158152506000856040516108a29190611012565b908152602001604051809103902060008201518160000190816108c59190611241565b5060208201518160010190816108db9190611241565b5060408201518160020190816108f19190611241565b5060608201518160030190816109079190611241565b5060808201518160040160006101000a81548160ff021916908315150217905550905050836040516109399190611012565b60405180910390207f26377fdebcfdf13b3c7d799812d835ea089310089d2890730c7eeb0920e45e948383604051610972929190611313565b60405180910390a250505050565b6000604051905090565b600080fd5b600080fd5b600080fd5b600080fd5b6000601f19601f8301169050919050565b7f4e487b7100000000000000000000000000000000000000000000000000000000600052604160045260246000fd5b6109e78261099e565b810181811067ffffffffffffffff82111715610a0657610a056109af565b5b80604052505050565b6000610a19610980565b9050610a2582826109de565b919050565b600067ffffffffffffffff821115610a4557610a446109af565b5b610a4e8261099e565b9050602081019050919050565b82818337600083830152505050565b6000610a7d610a7884610a2a565b610a0f565b905082815260208101848484011115610a9957610a98610999565b5b610aa4848285610a5b565b509392505050565b600082601f830112610ac157610ac0610994565b5b8135610ad1848260208601610a6a565b91505092915050565b600060208284031215610af057610aef61098a565b5b600082013567ffffffffffffffff811115610b0e57610b0d61098f565b5b610b1a84828501610aac565b91505092915050565b600081519050919050565b600082825260208201905092915050565b60005b83811015610b5d578082015181840152602081019050610b42565b60008484015250505050565b6000610b7482610b23565b610b7e8185610b2e565b9350610b8e818560208601610b3f565b610b978161099e565b840191505092915050565b60008115159050919050565b610bb781610ba2565b82525050565b600060a0820190508181036000830152610bd78188610b69565b90508181036020830152610beb8187610b69565b90508181036040830152610bff8186610b69565b90508181036060830152610c138185610b69565b9050610c226080830184610bae565b9695505050505050565b6000819050919050565b610c3f81610c2c565b8114610c4a57600080fd5b50565b600081359050610c5c81610c36565b92915050565b60008060408385031215610c7957610c7861098a565b5b600083013567ffffffffffffffff811115610c9757610c9661098f565b5b610ca385828601610aac565b9250506020610cb485828601610c4d565b9150509250929050565b610cc781610c2c565b82525050565b600060a082019050610ce26000830188610cbe565b8181036020830152610cf48187610b69565b90508181036040830152610d088186610b69565b90508181036060830152610d1c8185610b69565b90508181036080830152610d308184610b69565b90509695505050505050565b600073ffffffffffffffffffffffffffffffffffffffff82169050919050565b6000610d6782610d3c565b9050919050565b610d7781610d5c565b82525050565b6000602082019050610d926000830184610d6e565b92915050565b600080600080600060a08688031215610db457610db361098a565b5b600086013567ffffffffffffffff811115610dd257610dd161098f565b5b610dde88828901610aac565b955050602086013567ffffffffffffffff811115610dff57610dfe61098f565b5b610e0b88828901610aac565b945050604086013567ffffffffffffffff811115610e2c57610e2b61098f565b5b610e3888828901610aac565b935050606086013567ffffffffffffffff811115610e5957610e5861098f565b5b610e6588828901610aac565b925050608086013567ffffffffffffffff811115610e8657610e8561098f565b5b610e9288828901610aac565b9150509295509295909350565b60008060008060808587031215610eb957610eb861098a565b5b600085013567ffffffffffffffff811115610ed757610ed661098f565b5b610ee387828801610aac565b945050602085013567ffffffffffffffff811115610f0457610f0361098f565b5b610f1087828801610aac565b935050604085013567ffffffffffffffff811115610f3157610f3061098f565b5b610f3d87828801610aac565b925050606085013567ffffffffffffffff811115610f5e57610f5d61098f565b5b610f6a87828801610aac565b91505092959194509250565b7f4e487b7100000000000000000000000000000000000000000000000000000000600052602260045260246000fd5b60006002820490506001821680610fbd57607f821691505b602082108103610fd057610fcf610f76565b5b50919050565b600081905092915050565b6000610fec82610b23565b610ff68185610fd6565b9350611006818560208601610b3f565b80840191505092915050565b600061101e8284610fe1565b915081905092915050565b7f436574746520636861756469657265206e276578697374652070617300000000600082015250565b600061105f601c83610b2e565b915061106a82611029565b602082019050919050565b6000602082019050818103600083015261108e81611052565b9050919050565b60008190508160005260206000209050919050565b60006020601f8301049050919050565b600082821b905092915050565b6000600883026110f77fffffffffffffffffffffffffffffffffffffffffffffffffffffffffffffffff826110ba565b61110186836110ba565b95508019841693508086168417925050509392505050565b6000819050919050565b600061113e61113961113484610c2c565b611119565b610c2c565b9050919050565b6000819050919050565b61115883611123565b61116c61116482611145565b8484546110c7565b825550505050565b600090565b611181611174565b61118c81848461114f565b505050565b5b818110156111b0576111a5600082611179565b600181019050611192565b5050565b601f8211156111f5576111c681611095565b6111cf846110aa565b810160208510156111de578190505b6111f26111ea856110aa565b830182611191565b50505b505050565b600082821c905092915050565b6000611218600019846008026111fa565b1980831691505092915050565b60006112318383611207565b9150826002028217905092915050565b61124a82610b23565b67ffffffffffffffff811115611263576112626109af565b5b61126d8254610fa5565b6112788282856111b4565b600060209050601f8311600181146112ab5760008415611299578287015190505b6112a38582611225565b86555061130b565b601f1984166112b986611095565b60005b828110156112e1578489015182556001820191506020850194506020810190506112bc565b868310156112fe57848901516112fa601f891682611207565b8355505b6001600288020188555050505b505050505050565b6000604082019050818103600083015261132d8185610b69565b905081810360208301526113418184610b69565b90509392505050565b7f526573657276652061206c2761646d696e697374726174657572000000000000600082015250565b6000611380601a83610b2e565b915061138b8261134a565b602082019050919050565b600060208201905081810360008301526113af81611373565b905091905056fea264697066735822122035201b9b755fac2f5ff5162a510974f0c70b1e80a5568a80324718c1ef625de464736f6c634300081c0033",
  "linkReferences": {},
  "deployedLinkReferences": {}
}